{
    "_format": "hh-sol-artifact-1",
    "contractName": "NFTDAO",
    "sourceName": "contracts/NFTDAO.sol",
    "abi": [
        {
            "inputs": [
                {
                    "internalType": "string",
                    "name": "_name",
                    "type": "string"
                },
                {
                    "internalType": "string",
                    "name": "_symbol",
                    "type": "string"
                }
            ],
            "stateMutability": "nonpayable",
            "type": "constructor"
        },
        {
            "anonymous": false,
            "inputs": [
                {
                    "indexed": true,
                    "internalType": "address",
                    "name": "owner",
                    "type": "address"
                },
                {
                    "indexed": true,
                    "internalType": "address",
                    "name": "approved",
                    "type": "address"
                },
                {
                    "indexed": true,
                    "internalType": "uint256",
                    "name": "tokenId",
                    "type": "uint256"
                }
            ],
            "name": "Approval",
            "type": "event"
        },
        {
            "anonymous": false,
            "inputs": [
                {
                    "indexed": true,
                    "internalType": "address",
                    "name": "owner",
                    "type": "address"
                },
                {
                    "indexed": true,
                    "internalType": "address",
                    "name": "operator",
                    "type": "address"
                },
                {
                    "indexed": false,
                    "internalType": "bool",
                    "name": "approved",
                    "type": "bool"
                }
            ],
            "name": "ApprovalForAll",
            "type": "event"
        },
        {
            "anonymous": false,
            "inputs": [
                {
                    "indexed": true,
                    "internalType": "address",
                    "name": "previousOwner",
                    "type": "address"
                },
                {
                    "indexed": true,
                    "internalType": "address",
                    "name": "newOwner",
                    "type": "address"
                }
            ],
            "name": "OwnershipTransferred",
            "type": "event"
        },
        {
            "anonymous": false,
            "inputs": [
                {
                    "indexed": true,
                    "internalType": "address",
                    "name": "from",
                    "type": "address"
                },
                {
                    "indexed": true,
                    "internalType": "address",
                    "name": "to",
                    "type": "address"
                },
                {
                    "indexed": true,
                    "internalType": "uint256",
                    "name": "tokenId",
                    "type": "uint256"
                }
            ],
            "name": "Transfer",
            "type": "event"
        },
        {
            "inputs": [
                {
                    "internalType": "address",
                    "name": "to",
                    "type": "address"
                },
                {
                    "internalType": "uint256",
                    "name": "tokenId",
                    "type": "uint256"
                }
            ],
            "name": "approve",
            "outputs": [],
            "stateMutability": "nonpayable",
            "type": "function"
        },
        {
            "inputs": [
                {
                    "internalType": "address",
                    "name": "owner",
                    "type": "address"
                }
            ],
            "name": "balanceOf",
            "outputs": [
                {
                    "internalType": "uint256",
                    "name": "",
                    "type": "uint256"
                }
            ],
            "stateMutability": "view",
            "type": "function"
        },
        {
            "inputs": [
                {
                    "internalType": "string",
                    "name": "_description",
                    "type": "string"
                }
            ],
            "name": "createProposal",
            "outputs": [],
            "stateMutability": "nonpayable",
            "type": "function"
        },
        {
            "inputs": [
                {
                    "internalType": "uint256",
                    "name": "tokenId",
                    "type": "uint256"
                }
            ],
            "name": "getApproved",
            "outputs": [
                {
                    "internalType": "address",
                    "name": "",
                    "type": "address"
                }
            ],
            "stateMutability": "view",
            "type": "function"
        },
        {
            "inputs": [
                {
                    "internalType": "uint256",
                    "name": "_proposalId",
                    "type": "uint256"
                }
            ],
            "name": "getProposal",
            "outputs": [
                {
                    "internalType": "string",
                    "name": "",
                    "type": "string"
                },
                {
                    "internalType": "uint256",
                    "name": "",
                    "type": "uint256"
                },
                {
                    "internalType": "uint256",
                    "name": "",
                    "type": "uint256"
                }
            ],
            "stateMutability": "view",
            "type": "function"
        },
        {
            "inputs": [
                {
                    "internalType": "address",
                    "name": "owner",
                    "type": "address"
                },
                {
                    "internalType": "address",
                    "name": "operator",
                    "type": "address"
                }
            ],
            "name": "isApprovedForAll",
            "outputs": [
                {
                    "internalType": "bool",
                    "name": "",
                    "type": "bool"
                }
            ],
            "stateMutability": "view",
            "type": "function"
        },
        {
            "inputs": [
                {
                    "internalType": "address",
                    "name": "_to",
                    "type": "address"
                }
            ],
            "name": "mint",
            "outputs": [],
            "stateMutability": "nonpayable",
            "type": "function"
        },
        {
            "inputs": [],
            "name": "name",
            "outputs": [
                {
                    "internalType": "string",
                    "name": "",
                    "type": "string"
                }
            ],
            "stateMutability": "view",
            "type": "function"
        },
        {
            "inputs": [],
            "name": "owner",
            "outputs": [
                {
                    "internalType": "address",
                    "name": "",
                    "type": "address"
                }
            ],
            "stateMutability": "view",
            "type": "function"
        },
        {
            "inputs": [
                {
                    "internalType": "uint256",
                    "name": "tokenId",
                    "type": "uint256"
                }
            ],
            "name": "ownerOf",
            "outputs": [
                {
                    "internalType": "address",
                    "name": "",
                    "type": "address"
                }
            ],
            "stateMutability": "view",
            "type": "function"
        },
        {
            "inputs": [],
            "name": "proposalCounter",
            "outputs": [
                {
                    "internalType": "uint256",
                    "name": "",
                    "type": "uint256"
                }
            ],
            "stateMutability": "view",
            "type": "function"
        },
        {
            "inputs": [
                {
                    "internalType": "uint256",
                    "name": "",
                    "type": "uint256"
                }
            ],
            "name": "proposals",
            "outputs": [
                {
                    "internalType": "string",
                    "name": "description",
                    "type": "string"
                },
                {
                    "internalType": "uint256",
                    "name": "yesVotes",
                    "type": "uint256"
                },
                {
                    "internalType": "uint256",
                    "name": "noVotes",
                    "type": "uint256"
                },
                {
                    "internalType": "bool",
                    "name": "isApproved",
                    "type": "bool"
                }
            ],
            "stateMutability": "view",
            "type": "function"
        },
        {
            "inputs": [],
            "name": "renounceOwnership",
            "outputs": [],
            "stateMutability": "nonpayable",
            "type": "function"
        },
        {
            "inputs": [
                {
                    "internalType": "address",
                    "name": "from",
                    "type": "address"
                },
                {
                    "internalType": "address",
                    "name": "to",
                    "type": "address"
                },
                {
                    "internalType": "uint256",
                    "name": "tokenId",
                    "type": "uint256"
                }
            ],
            "name": "safeTransferFrom",
            "outputs": [],
            "stateMutability": "nonpayable",
            "type": "function"
        },
        {
            "inputs": [
                {
                    "internalType": "address",
                    "name": "from",
                    "type": "address"
                },
                {
                    "internalType": "address",
                    "name": "to",
                    "type": "address"
                },
                {
                    "internalType": "uint256",
                    "name": "tokenId",
                    "type": "uint256"
                },
                {
                    "internalType": "bytes",
                    "name": "data",
                    "type": "bytes"
                }
            ],
            "name": "safeTransferFrom",
            "outputs": [],
            "stateMutability": "nonpayable",
            "type": "function"
        },
        {
            "inputs": [
                {
                    "internalType": "address",
                    "name": "operator",
                    "type": "address"
                },
                {
                    "internalType": "bool",
                    "name": "approved",
                    "type": "bool"
                }
            ],
            "name": "setApprovalForAll",
            "outputs": [],
            "stateMutability": "nonpayable",
            "type": "function"
        },
        {
            "inputs": [
                {
                    "internalType": "bytes4",
                    "name": "interfaceId",
                    "type": "bytes4"
                }
            ],
            "name": "supportsInterface",
            "outputs": [
                {
                    "internalType": "bool",
                    "name": "",
                    "type": "bool"
                }
            ],
            "stateMutability": "view",
            "type": "function"
        },
        {
            "inputs": [],
            "name": "symbol",
            "outputs": [
                {
                    "internalType": "string",
                    "name": "",
                    "type": "string"
                }
            ],
            "stateMutability": "view",
            "type": "function"
        },
        {
            "inputs": [
                {
                    "internalType": "uint256",
                    "name": "index",
                    "type": "uint256"
                }
            ],
            "name": "tokenByIndex",
            "outputs": [
                {
                    "internalType": "uint256",
                    "name": "",
                    "type": "uint256"
                }
            ],
            "stateMutability": "view",
            "type": "function"
        },
        {
            "inputs": [
                {
                    "internalType": "address",
                    "name": "owner",
                    "type": "address"
                },
                {
                    "internalType": "uint256",
                    "name": "index",
                    "type": "uint256"
                }
            ],
            "name": "tokenOfOwnerByIndex",
            "outputs": [
                {
                    "internalType": "uint256",
                    "name": "",
                    "type": "uint256"
                }
            ],
            "stateMutability": "view",
            "type": "function"
        },
        {
            "inputs": [
                {
                    "internalType": "uint256",
                    "name": "tokenId",
                    "type": "uint256"
                }
            ],
            "name": "tokenURI",
            "outputs": [
                {
                    "internalType": "string",
                    "name": "",
                    "type": "string"
                }
            ],
            "stateMutability": "view",
            "type": "function"
        },
        {
            "inputs": [],
            "name": "totalSupply",
            "outputs": [
                {
                    "internalType": "uint256",
                    "name": "",
                    "type": "uint256"
                }
            ],
            "stateMutability": "view",
            "type": "function"
        },
        {
            "inputs": [
                {
                    "internalType": "address",
                    "name": "from",
                    "type": "address"
                },
                {
                    "internalType": "address",
                    "name": "to",
                    "type": "address"
                },
                {
                    "internalType": "uint256",
                    "name": "tokenId",
                    "type": "uint256"
                }
            ],
            "name": "transferFrom",
            "outputs": [],
            "stateMutability": "nonpayable",
            "type": "function"
        },
        {
            "inputs": [
                {
                    "internalType": "address",
                    "name": "newOwner",
                    "type": "address"
                }
            ],
            "name": "transferOwnership",
            "outputs": [],
            "stateMutability": "nonpayable",
            "type": "function"
        },
        {
            "inputs": [
                {
                    "internalType": "uint256",
                    "name": "_proposalId",
                    "type": "uint256"
                },
                {
                    "internalType": "bool",
                    "name": "_supportsProposal",
                    "type": "bool"
                }
            ],
            "name": "vote",
            "outputs": [],
            "stateMutability": "nonpayable",
            "type": "function"
        }
    ],
    "bytecode": "0x60806040526000600d553480156200001657600080fd5b506040516200412d3803806200412d83398181016040528101906200003c919062000294565b81816200005e620000526200009a60201b60201c565b620000a260201b60201c565b81600190805190602001906200007692919062000166565b5080600290805190602001906200008f92919062000166565b50505050506200049d565b600033905090565b60008060009054906101000a900473ffffffffffffffffffffffffffffffffffffffff169050816000806101000a81548173ffffffffffffffffffffffffffffffffffffffff021916908373ffffffffffffffffffffffffffffffffffffffff1602179055508173ffffffffffffffffffffffffffffffffffffffff168173ffffffffffffffffffffffffffffffffffffffff167f8be0079c531659141344cd1fd0a4f28419497f9722a3daafe3b4186f6b6457e060405160405180910390a35050565b8280546200017490620003ae565b90600052602060002090601f016020900481019282620001985760008555620001e4565b82601f10620001b357805160ff1916838001178555620001e4565b82800160010185558215620001e4579182015b82811115620001e3578251825591602001919060010190620001c6565b5b509050620001f39190620001f7565b5090565b5b8082111562000212576000816000905550600101620001f8565b5090565b60006200022d620002278462000342565b62000319565b9050828152602081018484840111156200024c576200024b6200047d565b5b6200025984828562000378565b509392505050565b600082601f83011262000279576200027862000478565b5b81516200028b84826020860162000216565b91505092915050565b60008060408385031215620002ae57620002ad62000487565b5b600083015167ffffffffffffffff811115620002cf57620002ce62000482565b5b620002dd8582860162000261565b925050602083015167ffffffffffffffff81111562000301576200030062000482565b5b6200030f8582860162000261565b9150509250929050565b60006200032562000338565b9050620003338282620003e4565b919050565b6000604051905090565b600067ffffffffffffffff82111562000360576200035f62000449565b5b6200036b826200048c565b9050602081019050919050565b60005b83811015620003985780820151818401526020810190506200037b565b83811115620003a8576000848401525b50505050565b60006002820490506001821680620003c757607f821691505b60208210811415620003de57620003dd6200041a565b5b50919050565b620003ef826200048c565b810181811067ffffffffffffffff8211171562000411576200041062000449565b5b80604052505050565b7f4e487b7100000000000000000000000000000000000000000000000000000000600052602260045260246000fd5b7f4e487b7100000000000000000000000000000000000000000000000000000000600052604160045260246000fd5b600080fd5b600080fd5b600080fd5b600080fd5b6000601f19601f8301169050919050565b613c8080620004ad6000396000f3fe608060405234801561001057600080fd5b50600436106101735760003560e01c80636352211e116100de578063a22cb46511610097578063c87b56dd11610071578063c87b56dd14610461578063c9d27afe14610491578063e985e9c5146104ad578063f2fde38b146104dd57610173565b8063a22cb465146103f7578063b88d4fde14610413578063c7f758a81461042f57610173565b80636352211e146103355780636a6278421461036557806370a0823114610381578063715018a6146103b15780638da5cb5b146103bb57806395d89b41146103d957610173565b806318160ddd1161013057806318160ddd1461026357806323b872dd146102815780632f745c591461029d57806342842e0e146102cd57806349c2a1a6146102e95780634f6ccce71461030557610173565b8063013cf08b1461017857806301ffc9a7146101ab57806306fdde03146101db578063081812fc146101f9578063095ea7b3146102295780630c0512e914610245575b600080fd5b610192600480360381019061018d9190612ac0565b6104f9565b6040516101a29493929190612fbf565b60405180910390f35b6101c560048036038101906101c09190612a1d565b6105be565b6040516101d29190612f44565b60405180910390f35b6101e3610638565b6040516101f09190612f5f565b60405180910390f35b610213600480360381019061020e9190612ac0565b6106ca565b6040516102209190612edd565b60405180910390f35b610243600480360381019061023e91906129dd565b610710565b005b61024d610828565b60405161025a919061328b565b60405180910390f35b61026b61082e565b604051610278919061328b565b60405180910390f35b61029b600480360381019061029691906128c7565b61083b565b005b6102b760048036038101906102b291906129dd565b61089b565b6040516102c4919061328b565b60405180910390f35b6102e760048036038101906102e291906128c7565b610940565b005b61030360048036038101906102fe9190612a77565b610960565b005b61031f600480360381019061031a9190612ac0565b6109c2565b60405161032c919061328b565b60405180910390f35b61034f600480360381019061034a9190612ac0565b610a33565b60405161035c9190612edd565b60405180910390f35b61037f600480360381019061037a919061285a565b610aba565b005b61039b6004803603810190610396919061285a565b610b12565b6040516103a8919061328b565b60405180910390f35b6103b9610bca565b005b6103c3610bde565b6040516103d09190612edd565b60405180910390f35b6103e1610c07565b6040516103ee9190612f5f565b60405180910390f35b610411600480360381019061040c919061299d565b610c99565b005b61042d6004803603810190610428919061291a565b610caf565b005b61044960048036038101906104449190612ac0565b610d11565b60405161045893929190612f81565b60405180910390f35b61047b60048036038101906104769190612ac0565b610e1a565b6040516104889190612f5f565b60405180910390f35b6104ab60048036038101906104a69190612aed565b610e82565b005b6104c760048036038101906104c29190612887565b6110e1565b6040516104d49190612f44565b60405180910390f35b6104f760048036038101906104f2919061285a565b611175565b005b600b60205280600052604060002060009150905080600001805461051c906134e1565b80601f0160208091040260200160405190810160405280929190818152602001828054610548906134e1565b80156105955780601f1061056a57610100808354040283529160200191610595565b820191906000526020600020905b81548152906001019060200180831161057857829003601f168201915b5050505050908060010154908060020154908060040160009054906101000a900460ff16905084565b60007f780e9d63000000000000000000000000000000000000000000000000000000007bffffffffffffffffffffffffffffffffffffffffffffffffffffffff1916827bffffffffffffffffffffffffffffffffffffffffffffffffffffffff191614806106315750610630826111f9565b5b9050919050565b606060018054610647906134e1565b80601f0160208091040260200160405190810160405280929190818152602001828054610673906134e1565b80156106c05780601f10610695576101008083540402835291602001916106c0565b820191906000526020600020905b8154815290600101906020018083116106a357829003601f168201915b5050505050905090565b60006106d5826112db565b6005600083815260200190815260200160002060009054906101000a900473ffffffffffffffffffffffffffffffffffffffff169050919050565b600061071b82610a33565b90508073ffffffffffffffffffffffffffffffffffffffff168373ffffffffffffffffffffffffffffffffffffffff16141561078c576040517f08c379a0000000000000000000000000000000000000000000000000000000008152600401610783906131ab565b60405180910390fd5b8073ffffffffffffffffffffffffffffffffffffffff166107ab611326565b73ffffffffffffffffffffffffffffffffffffffff1614806107da57506107d9816107d4611326565b6110e1565b5b610819576040517f08c379a0000000000000000000000000000000000000000000000000000000008152600401610810906131cb565b60405180910390fd5b610823838361132e565b505050565b600c5481565b6000600980549050905090565b61084c610846611326565b826113e7565b61088b576040517f08c379a00000000000000000000000000000000000000000000000000000000081526004016108829061300b565b60405180910390fd5b61089683838361147c565b505050565b60006108a683610b12565b82106108e7576040517f08c379a00000000000000000000000000000000000000000000000000000000081526004016108de9061302b565b60405180910390fd5b600760008473ffffffffffffffffffffffffffffffffffffffff1673ffffffffffffffffffffffffffffffffffffffff168152602001908152602001600020600083815260200190815260200160002054905092915050565b61095b83838360405180602001604052806000815250610caf565b505050565b610968611776565b60006001600c546109799190613370565b905081600b600083815260200190815260200160002060000190805190602001906109a592919061266e565b50600c60008154809291906109b990613544565b91905055505050565b60006109cc61082e565b8210610a0d576040517f08c379a0000000000000000000000000000000000000000000000000000000008152600401610a049061320b565b60405180910390fd5b60098281548110610a2157610a20613649565b5b90600052602060002001549050919050565b600080610a3f836117f4565b9050600073ffffffffffffffffffffffffffffffffffffffff168173ffffffffffffffffffffffffffffffffffffffff161415610ab1576040517f08c379a0000000000000000000000000000000000000000000000000000000008152600401610aa89061318b565b60405180910390fd5b80915050919050565b610ac2611776565b60006001610ace61082e565b610ad89190613370565b90506000610ae583610b12565b1415610b0457600d6000815480929190610afe90613544565b91905055505b610b0e8282611831565b5050565b60008073ffffffffffffffffffffffffffffffffffffffff168273ffffffffffffffffffffffffffffffffffffffff161415610b83576040517f08c379a0000000000000000000000000000000000000000000000000000000008152600401610b7a9061312b565b60405180910390fd5b600460008373ffffffffffffffffffffffffffffffffffffffff1673ffffffffffffffffffffffffffffffffffffffff168152602001908152602001600020549050919050565b610bd2611776565b610bdc600061184f565b565b60008060009054906101000a900473ffffffffffffffffffffffffffffffffffffffff16905090565b606060028054610c16906134e1565b80601f0160208091040260200160405190810160405280929190818152602001828054610c42906134e1565b8015610c8f5780601f10610c6457610100808354040283529160200191610c8f565b820191906000526020600020905b815481529060010190602001808311610c7257829003601f168201915b5050505050905090565b610cab610ca4611326565b8383611913565b5050565b610cc0610cba611326565b836113e7565b610cff576040517f08c379a0000000000000000000000000000000000000000000000000000000008152600401610cf69061300b565b60405180910390fd5b610d0b84848484611a80565b50505050565b6060600080600c54841115610d5b576040517f08c379a0000000000000000000000000000000000000000000000000000000008152600401610d529061326b565b60405180910390fd5b6000600b600086815260200190815260200160002090508060000181600101548260020154828054610d8c906134e1565b80601f0160208091040260200160405190810160405280929190818152602001828054610db8906134e1565b8015610e055780601f10610dda57610100808354040283529160200191610e05565b820191906000526020600020905b815481529060010190602001808311610de857829003601f168201915b50505050509250935093509350509193909250565b6060610e25826112db565b6000610e2f611adc565b90506000815111610e4f5760405180602001604052806000815250610e7a565b80610e5984611af3565b604051602001610e6a929190612eb9565b6040516020818303038152906040525b915050919050565b6000610e8d33610b12565b11610ecd576040517f08c379a0000000000000000000000000000000000000000000000000000000008152600401610ec49061322b565b60405180910390fd5b60008211610f10576040517f08c379a0000000000000000000000000000000000000000000000000000000008152600401610f07906131eb565b60405180910390fd5b600b600083815260200190815260200160002060030160003373ffffffffffffffffffffffffffffffffffffffff1673ffffffffffffffffffffffffffffffffffffffff16815260200190815260200160002060009054906101000a900460ff1615610fb1576040517f08c379a0000000000000000000000000000000000000000000000000000000008152600401610fa89061308b565b60405180910390fd5b6001600b600084815260200190815260200160002060030160003373ffffffffffffffffffffffffffffffffffffffff1673ffffffffffffffffffffffffffffffffffffffff16815260200190815260200160002060006101000a81548160ff021916908315150217905550801561105457600b6000838152602001908152602001600020600101600081548092919061104a90613544565b9190505550611081565b600b6000838152602001908152602001600020600201600081548092919061107b90613544565b91905055505b6002600d5461109091906133c6565b600b60008481526020019081526020016000206001015411156110dd576001600b600084815260200190815260200160002060040160006101000a81548160ff0219169083151502179055505b5050565b6000600660008473ffffffffffffffffffffffffffffffffffffffff1673ffffffffffffffffffffffffffffffffffffffff16815260200190815260200160002060008373ffffffffffffffffffffffffffffffffffffffff1673ffffffffffffffffffffffffffffffffffffffff16815260200190815260200160002060009054906101000a900460ff16905092915050565b61117d611776565b600073ffffffffffffffffffffffffffffffffffffffff168173ffffffffffffffffffffffffffffffffffffffff1614156111ed576040517f08c379a00000000000000000000000000000000000000000000000000000000081526004016111e49061306b565b60405180910390fd5b6111f68161184f565b50565b60007f80ac58cd000000000000000000000000000000000000000000000000000000007bffffffffffffffffffffffffffffffffffffffffffffffffffffffff1916827bffffffffffffffffffffffffffffffffffffffffffffffffffffffff191614806112c457507f5b5e139f000000000000000000000000000000000000000000000000000000007bffffffffffffffffffffffffffffffffffffffffffffffffffffffff1916827bffffffffffffffffffffffffffffffffffffffffffffffffffffffff1916145b806112d457506112d382611bcb565b5b9050919050565b6112e481611c35565b611323576040517f08c379a000000000000000000000000000000000000000000000000000000000815260040161131a9061318b565b60405180910390fd5b50565b600033905090565b816005600083815260200190815260200160002060006101000a81548173ffffffffffffffffffffffffffffffffffffffff021916908373ffffffffffffffffffffffffffffffffffffffff160217905550808273ffffffffffffffffffffffffffffffffffffffff166113a183610a33565b73ffffffffffffffffffffffffffffffffffffffff167f8c5be1e5ebec7d5bd14f71427d1e84f3dd0314c0f7b2291e5b200ac8c7c3b92560405160405180910390a45050565b6000806113f383610a33565b90508073ffffffffffffffffffffffffffffffffffffffff168473ffffffffffffffffffffffffffffffffffffffff161480611435575061143481856110e1565b5b8061147357508373ffffffffffffffffffffffffffffffffffffffff1661145b846106ca565b73ffffffffffffffffffffffffffffffffffffffff16145b91505092915050565b8273ffffffffffffffffffffffffffffffffffffffff1661149c82610a33565b73ffffffffffffffffffffffffffffffffffffffff16146114f2576040517f08c379a00000000000000000000000000000000000000000000000000000000081526004016114e9906130ab565b60405180910390fd5b600073ffffffffffffffffffffffffffffffffffffffff168273ffffffffffffffffffffffffffffffffffffffff161415611562576040517f08c379a0000000000000000000000000000000000000000000000000000000008152600401611559906130eb565b60405180910390fd5b61156f8383836001611c76565b8273ffffffffffffffffffffffffffffffffffffffff1661158f82610a33565b73ffffffffffffffffffffffffffffffffffffffff16146115e5576040517f08c379a00000000000000000000000000000000000000000000000000000000081526004016115dc906130ab565b60405180910390fd5b6005600082815260200190815260200160002060006101000a81549073ffffffffffffffffffffffffffffffffffffffff02191690556001600460008573ffffffffffffffffffffffffffffffffffffffff1673ffffffffffffffffffffffffffffffffffffffff168152602001908152602001600020600082825403925050819055506001600460008473ffffffffffffffffffffffffffffffffffffffff1673ffffffffffffffffffffffffffffffffffffffff16815260200190815260200160002060008282540192505081905550816003600083815260200190815260200160002060006101000a81548173ffffffffffffffffffffffffffffffffffffffff021916908373ffffffffffffffffffffffffffffffffffffffff160217905550808273ffffffffffffffffffffffffffffffffffffffff168473ffffffffffffffffffffffffffffffffffffffff167fddf252ad1be2c89b69c2b068fc378daa952ba7f163c4a11628f55a4df523b3ef60405160405180910390a46117718383836001611dd6565b505050565b61177e611326565b73ffffffffffffffffffffffffffffffffffffffff1661179c610bde565b73ffffffffffffffffffffffffffffffffffffffff16146117f2576040517f08c379a00000000000000000000000000000000000000000000000000000000081526004016117e99061316b565b60405180910390fd5b565b60006003600083815260200190815260200160002060009054906101000a900473ffffffffffffffffffffffffffffffffffffffff169050919050565b61184b828260405180602001604052806000815250611ddc565b5050565b60008060009054906101000a900473ffffffffffffffffffffffffffffffffffffffff169050816000806101000a81548173ffffffffffffffffffffffffffffffffffffffff021916908373ffffffffffffffffffffffffffffffffffffffff1602179055508173ffffffffffffffffffffffffffffffffffffffff168173ffffffffffffffffffffffffffffffffffffffff167f8be0079c531659141344cd1fd0a4f28419497f9722a3daafe3b4186f6b6457e060405160405180910390a35050565b8173ffffffffffffffffffffffffffffffffffffffff168373ffffffffffffffffffffffffffffffffffffffff161415611982576040517f08c379a00000000000000000000000000000000000000000000000000000000081526004016119799061310b565b60405180910390fd5b80600660008573ffffffffffffffffffffffffffffffffffffffff1673ffffffffffffffffffffffffffffffffffffffff16815260200190815260200160002060008473ffffffffffffffffffffffffffffffffffffffff1673ffffffffffffffffffffffffffffffffffffffff16815260200190815260200160002060006101000a81548160ff0219169083151502179055508173ffffffffffffffffffffffffffffffffffffffff168373ffffffffffffffffffffffffffffffffffffffff167f17307eab39ab6107e8899845ad3d59bd9653f200f220920489ca2b5937696c3183604051611a739190612f44565b60405180910390a3505050565b611a8b84848461147c565b611a9784848484611e37565b611ad6576040517f08c379a0000000000000000000000000000000000000000000000000000000008152600401611acd9061304b565b60405180910390fd5b50505050565b606060405180602001604052806000815250905090565b606060006001611b0284611fce565b01905060008167ffffffffffffffff811115611b2157611b20613678565b5b6040519080825280601f01601f191660200182016040528015611b535781602001600182028036833780820191505090505b509050600082602001820190505b600115611bc0578080600190039150507f3031323334353637383961626364656600000000000000000000000000000000600a86061a8153600a8581611baa57611ba96135bc565b5b0494506000851415611bbb57611bc0565b611b61565b819350505050919050565b60007f01ffc9a7000000000000000000000000000000000000000000000000000000007bffffffffffffffffffffffffffffffffffffffffffffffffffffffff1916827bffffffffffffffffffffffffffffffffffffffffffffffffffffffff1916149050919050565b60008073ffffffffffffffffffffffffffffffffffffffff16611c57836117f4565b73ffffffffffffffffffffffffffffffffffffffff1614159050919050565b611c8284848484612121565b6001811115611cc6576040517f08c379a0000000000000000000000000000000000000000000000000000000008152600401611cbd9061324b565b60405180910390fd5b6000829050600073ffffffffffffffffffffffffffffffffffffffff168573ffffffffffffffffffffffffffffffffffffffff161415611d0e57611d0981612127565b611d4d565b8373ffffffffffffffffffffffffffffffffffffffff168573ffffffffffffffffffffffffffffffffffffffff1614611d4c57611d4b8582612170565b5b5b600073ffffffffffffffffffffffffffffffffffffffff168473ffffffffffffffffffffffffffffffffffffffff161415611d9057611d8b816122dd565b611dcf565b8473ffffffffffffffffffffffffffffffffffffffff168473ffffffffffffffffffffffffffffffffffffffff1614611dce57611dcd84826123ae565b5b5b5050505050565b50505050565b611de6838361242d565b611df36000848484611e37565b611e32576040517f08c379a0000000000000000000000000000000000000000000000000000000008152600401611e299061304b565b60405180910390fd5b505050565b6000611e588473ffffffffffffffffffffffffffffffffffffffff1661264b565b15611fc1578373ffffffffffffffffffffffffffffffffffffffff1663150b7a02611e81611326565b8786866040518563ffffffff1660e01b8152600401611ea39493929190612ef8565b602060405180830381600087803b158015611ebd57600080fd5b505af1925050508015611eee57506040513d601f19601f82011682018060405250810190611eeb9190612a4a565b60015b611f71573d8060008114611f1e576040519150601f19603f3d011682016040523d82523d6000602084013e611f23565b606091505b50600081511415611f69576040517f08c379a0000000000000000000000000000000000000000000000000000000008152600401611f609061304b565b60405180910390fd5b805181602001fd5b63150b7a0260e01b7bffffffffffffffffffffffffffffffffffffffffffffffffffffffff1916817bffffffffffffffffffffffffffffffffffffffffffffffffffffffff191614915050611fc6565b600190505b949350505050565b600080600090507a184f03e93ff9f4daa797ed6e38ed64bf6a1f010000000000000000831061202c577a184f03e93ff9f4daa797ed6e38ed64bf6a1f0100000000000000008381612022576120216135bc565b5b0492506040810190505b6d04ee2d6d415b85acef81000000008310612069576d04ee2d6d415b85acef8100000000838161205f5761205e6135bc565b5b0492506020810190505b662386f26fc10000831061209857662386f26fc10000838161208e5761208d6135bc565b5b0492506010810190505b6305f5e10083106120c1576305f5e10083816120b7576120b66135bc565b5b0492506008810190505b61271083106120e65761271083816120dc576120db6135bc565b5b0492506004810190505b6064831061210957606483816120ff576120fe6135bc565b5b0492506002810190505b600a8310612118576001810190505b80915050919050565b50505050565b600980549050600a600083815260200190815260200160002081905550600981908060018154018082558091505060019003906000526020600020016000909190919091505550565b6000600161217d84610b12565b61218791906133f7565b905060006008600084815260200190815260200160002054905081811461226c576000600760008673ffffffffffffffffffffffffffffffffffffffff1673ffffffffffffffffffffffffffffffffffffffff168152602001908152602001600020600084815260200190815260200160002054905080600760008773ffffffffffffffffffffffffffffffffffffffff1673ffffffffffffffffffffffffffffffffffffffff168152602001908152602001600020600084815260200190815260200160002081905550816008600083815260200190815260200160002081905550505b6008600084815260200190815260200160002060009055600760008573ffffffffffffffffffffffffffffffffffffffff1673ffffffffffffffffffffffffffffffffffffffff16815260200190815260200160002060008381526020019081526020016000206000905550505050565b600060016009805490506122f191906133f7565b90506000600a600084815260200190815260200160002054905060006009838154811061232157612320613649565b5b90600052602060002001549050806009838154811061234357612342613649565b5b906000526020600020018190555081600a600083815260200190815260200160002081905550600a60008581526020019081526020016000206000905560098054806123925761239161361a565b5b6001900381819060005260206000200160009055905550505050565b60006123b983610b12565b905081600760008573ffffffffffffffffffffffffffffffffffffffff1673ffffffffffffffffffffffffffffffffffffffff168152602001908152602001600020600083815260200190815260200160002081905550806008600084815260200190815260200160002081905550505050565b600073ffffffffffffffffffffffffffffffffffffffff168273ffffffffffffffffffffffffffffffffffffffff16141561249d576040517f08c379a00000000000000000000000000000000000000000000000000000000081526004016124949061314b565b60405180910390fd5b6124a681611c35565b156124e6576040517f08c379a00000000000000000000000000000000000000000000000000000000081526004016124dd906130cb565b60405180910390fd5b6124f4600083836001611c76565b6124fd81611c35565b1561253d576040517f08c379a0000000000000000000000000000000000000000000000000000000008152600401612534906130cb565b60405180910390fd5b6001600460008473ffffffffffffffffffffffffffffffffffffffff1673ffffffffffffffffffffffffffffffffffffffff16815260200190815260200160002060008282540192505081905550816003600083815260200190815260200160002060006101000a81548173ffffffffffffffffffffffffffffffffffffffff021916908373ffffffffffffffffffffffffffffffffffffffff160217905550808273ffffffffffffffffffffffffffffffffffffffff16600073ffffffffffffffffffffffffffffffffffffffff167fddf252ad1be2c89b69c2b068fc378daa952ba7f163c4a11628f55a4df523b3ef60405160405180910390a4612647600083836001611dd6565b5050565b6000808273ffffffffffffffffffffffffffffffffffffffff163b119050919050565b82805461267a906134e1565b90600052602060002090601f01602090048101928261269c57600085556126e3565b82601f106126b557805160ff19168380011785556126e3565b828001600101855582156126e3579182015b828111156126e25782518255916020019190600101906126c7565b5b5090506126f091906126f4565b5090565b5b8082111561270d5760008160009055506001016126f5565b5090565b600061272461271f846132cb565b6132a6565b9050828152602081018484840111156127405761273f6136ac565b5b61274b84828561349f565b509392505050565b6000612766612761846132fc565b6132a6565b905082815260208101848484011115612782576127816136ac565b5b61278d84828561349f565b509392505050565b6000813590506127a481613bee565b92915050565b6000813590506127b981613c05565b92915050565b6000813590506127ce81613c1c565b92915050565b6000815190506127e381613c1c565b92915050565b600082601f8301126127fe576127fd6136a7565b5b813561280e848260208601612711565b91505092915050565b600082601f83011261282c5761282b6136a7565b5b813561283c848260208601612753565b91505092915050565b60008135905061285481613c33565b92915050565b6000602082840312156128705761286f6136b6565b5b600061287e84828501612795565b91505092915050565b6000806040838503121561289e5761289d6136b6565b5b60006128ac85828601612795565b92505060206128bd85828601612795565b9150509250929050565b6000806000606084860312156128e0576128df6136b6565b5b60006128ee86828701612795565b93505060206128ff86828701612795565b925050604061291086828701612845565b9150509250925092565b60008060008060808587031215612934576129336136b6565b5b600061294287828801612795565b945050602061295387828801612795565b935050604061296487828801612845565b925050606085013567ffffffffffffffff811115612985576129846136b1565b5b612991878288016127e9565b91505092959194509250565b600080604083850312156129b4576129b36136b6565b5b60006129c285828601612795565b92505060206129d3858286016127aa565b9150509250929050565b600080604083850312156129f4576129f36136b6565b5b6000612a0285828601612795565b9250506020612a1385828601612845565b9150509250929050565b600060208284031215612a3357612a326136b6565b5b6000612a41848285016127bf565b91505092915050565b600060208284031215612a6057612a5f6136b6565b5b6000612a6e848285016127d4565b91505092915050565b600060208284031215612a8d57612a8c6136b6565b5b600082013567ffffffffffffffff811115612aab57612aaa6136b1565b5b612ab784828501612817565b91505092915050565b600060208284031215612ad657612ad56136b6565b5b6000612ae484828501612845565b91505092915050565b60008060408385031215612b0457612b036136b6565b5b6000612b1285828601612845565b9250506020612b23858286016127aa565b9150509250929050565b612b368161342b565b82525050565b612b458161343d565b82525050565b6000612b568261332d565b612b608185613343565b9350612b708185602086016134ae565b612b79816136bb565b840191505092915050565b6000612b8f82613338565b612b998185613354565b9350612ba98185602086016134ae565b612bb2816136bb565b840191505092915050565b6000612bc882613338565b612bd28185613365565b9350612be28185602086016134ae565b80840191505092915050565b6000612bfb602d83613354565b9150612c06826136cc565b604082019050919050565b6000612c1e602b83613354565b9150612c298261371b565b604082019050919050565b6000612c41603283613354565b9150612c4c8261376a565b604082019050919050565b6000612c64602683613354565b9150612c6f826137b9565b604082019050919050565b6000612c87602983613354565b9150612c9282613808565b604082019050919050565b6000612caa602583613354565b9150612cb582613857565b604082019050919050565b6000612ccd601c83613354565b9150612cd8826138a6565b602082019050919050565b6000612cf0602483613354565b9150612cfb826138cf565b604082019050919050565b6000612d13601983613354565b9150612d1e8261391e565b602082019050919050565b6000612d36602983613354565b9150612d4182613947565b604082019050919050565b6000612d59602083613354565b9150612d6482613996565b602082019050919050565b6000612d7c602083613354565b9150612d87826139bf565b602082019050919050565b6000612d9f601883613354565b9150612daa826139e8565b602082019050919050565b6000612dc2602183613354565b9150612dcd82613a11565b604082019050919050565b6000612de5603d83613354565b9150612df082613a60565b604082019050919050565b6000612e08602a83613354565b9150612e1382613aaf565b604082019050919050565b6000612e2b602c83613354565b9150612e3682613afe565b604082019050919050565b6000612e4e601f83613354565b9150612e5982613b4d565b602082019050919050565b6000612e71603583613354565b9150612e7c82613b76565b604082019050919050565b6000612e94601483613354565b9150612e9f82613bc5565b602082019050919050565b612eb381613495565b82525050565b6000612ec58285612bbd565b9150612ed18284612bbd565b91508190509392505050565b6000602082019050612ef26000830184612b2d565b92915050565b6000608082019050612f0d6000830187612b2d565b612f1a6020830186612b2d565b612f276040830185612eaa565b8181036060830152612f398184612b4b565b905095945050505050565b6000602082019050612f596000830184612b3c565b92915050565b60006020820190508181036000830152612f798184612b84565b905092915050565b60006060820190508181036000830152612f9b8186612b84565b9050612faa6020830185612eaa565b612fb76040830184612eaa565b949350505050565b60006080820190508181036000830152612fd98187612b84565b9050612fe86020830186612eaa565b612ff56040830185612eaa565b6130026060830184612b3c565b95945050505050565b6000602082019050818103600083015261302481612bee565b9050919050565b6000602082019050818103600083015261304481612c11565b9050919050565b6000602082019050818103600083015261306481612c34565b9050919050565b6000602082019050818103600083015261308481612c57565b9050919050565b600060208201905081810360008301526130a481612c7a565b9050919050565b600060208201905081810360008301526130c481612c9d565b9050919050565b600060208201905081810360008301526130e481612cc0565b9050919050565b6000602082019050818103600083015261310481612ce3565b9050919050565b6000602082019050818103600083015261312481612d06565b9050919050565b6000602082019050818103600083015261314481612d29565b9050919050565b6000602082019050818103600083015261316481612d4c565b9050919050565b6000602082019050818103600083015261318481612d6f565b9050919050565b600060208201905081810360008301526131a481612d92565b9050919050565b600060208201905081810360008301526131c481612db5565b9050919050565b600060208201905081810360008301526131e481612dd8565b9050919050565b6000602082019050818103600083015261320481612dfb565b9050919050565b6000602082019050818103600083015261322481612e1e565b9050919050565b6000602082019050818103600083015261324481612e41565b9050919050565b6000602082019050818103600083015261326481612e64565b9050919050565b6000602082019050818103600083015261328481612e87565b9050919050565b60006020820190506132a06000830184612eaa565b92915050565b60006132b06132c1565b90506132bc8282613513565b919050565b6000604051905090565b600067ffffffffffffffff8211156132e6576132e5613678565b5b6132ef826136bb565b9050602081019050919050565b600067ffffffffffffffff82111561331757613316613678565b5b613320826136bb565b9050602081019050919050565b600081519050919050565b600081519050919050565b600082825260208201905092915050565b600082825260208201905092915050565b600081905092915050565b600061337b82613495565b915061338683613495565b9250827fffffffffffffffffffffffffffffffffffffffffffffffffffffffffffffffff038211156133bb576133ba61358d565b5b828201905092915050565b60006133d182613495565b91506133dc83613495565b9250826133ec576133eb6135bc565b5b828204905092915050565b600061340282613495565b915061340d83613495565b9250828210156134205761341f61358d565b5b828203905092915050565b600061343682613475565b9050919050565b60008115159050919050565b60007fffffffff0000000000000000000000000000000000000000000000000000000082169050919050565b600073ffffffffffffffffffffffffffffffffffffffff82169050919050565b6000819050919050565b82818337600083830152505050565b60005b838110156134cc5780820151818401526020810190506134b1565b838111156134db576000848401525b50505050565b600060028204905060018216806134f957607f821691505b6020821081141561350d5761350c6135eb565b5b50919050565b61351c826136bb565b810181811067ffffffffffffffff8211171561353b5761353a613678565b5b80604052505050565b600061354f82613495565b91507fffffffffffffffffffffffffffffffffffffffffffffffffffffffffffffffff8214156135825761358161358d565b5b600182019050919050565b7f4e487b7100000000000000000000000000000000000000000000000000000000600052601160045260246000fd5b7f4e487b7100000000000000000000000000000000000000000000000000000000600052601260045260246000fd5b7f4e487b7100000000000000000000000000000000000000000000000000000000600052602260045260246000fd5b7f4e487b7100000000000000000000000000000000000000000000000000000000600052603160045260246000fd5b7f4e487b7100000000000000000000000000000000000000000000000000000000600052603260045260246000fd5b7f4e487b7100000000000000000000000000000000000000000000000000000000600052604160045260246000fd5b600080fd5b600080fd5b600080fd5b600080fd5b6000601f19601f8301169050919050565b7f4552433732313a2063616c6c6572206973206e6f7420746f6b656e206f776e6560008201527f72206f7220617070726f76656400000000000000000000000000000000000000602082015250565b7f455243373231456e756d657261626c653a206f776e657220696e646578206f7560008201527f74206f6620626f756e6473000000000000000000000000000000000000000000602082015250565b7f4552433732313a207472616e7366657220746f206e6f6e20455243373231526560008201527f63656976657220696d706c656d656e7465720000000000000000000000000000602082015250565b7f4f776e61626c653a206e6577206f776e657220697320746865207a65726f206160008201527f6464726573730000000000000000000000000000000000000000000000000000602082015250565b7f596f75206861766520616c726561647920766f74656420666f7220746869732060008201527f70726f706f73616c2e0000000000000000000000000000000000000000000000602082015250565b7f4552433732313a207472616e736665722066726f6d20696e636f72726563742060008201527f6f776e6572000000000000000000000000000000000000000000000000000000602082015250565b7f4552433732313a20746f6b656e20616c7265616479206d696e74656400000000600082015250565b7f4552433732313a207472616e7366657220746f20746865207a65726f2061646460008201527f7265737300000000000000000000000000000000000000000000000000000000602082015250565b7f4552433732313a20617070726f766520746f2063616c6c657200000000000000600082015250565b7f4552433732313a2061646472657373207a65726f206973206e6f74206120766160008201527f6c6964206f776e65720000000000000000000000000000000000000000000000602082015250565b7f4552433732313a206d696e7420746f20746865207a65726f2061646472657373600082015250565b7f4f776e61626c653a2063616c6c6572206973206e6f7420746865206f776e6572600082015250565b7f4552433732313a20696e76616c696420746f6b656e2049440000000000000000600082015250565b7f4552433732313a20617070726f76616c20746f2063757272656e74206f776e6560008201527f7200000000000000000000000000000000000000000000000000000000000000602082015250565b7f4552433732313a20617070726f76652063616c6c6572206973206e6f7420746f60008201527f6b656e206f776e6572206f7220617070726f76656420666f7220616c6c000000602082015250565b7f5468657265206973206e6f206163746976652070726f706f73616c20666f722060008201527f74686520746f6b656e2e00000000000000000000000000000000000000000000602082015250565b7f455243373231456e756d657261626c653a20676c6f62616c20696e646578206f60008201527f7574206f6620626f756e64730000000000000000000000000000000000000000602082015250565b7f596f75206d757374206f776e2074686520746f6b656e20746f20766f74652e00600082015250565b7f455243373231456e756d657261626c653a20636f6e736563757469766520747260008201527f616e7366657273206e6f7420737570706f727465640000000000000000000000602082015250565b7f496e76616c69642070726f706f73616c2049442e000000000000000000000000600082015250565b613bf78161342b565b8114613c0257600080fd5b50565b613c0e8161343d565b8114613c1957600080fd5b50565b613c2581613449565b8114613c3057600080fd5b50565b613c3c81613495565b8114613c4757600080fd5b5056fea2646970667358221220e5a9266b6b033c4edc030d1fd25eaf29ad3391e582972bfed5fb34eae9f0c16364736f6c63430008070033",
    "linkReferences": {},
    "deployedLinkReferences": {}
}